:100000009CC40000CBC40000C9C40000C7C40000E9
:10001000C5C40000C3C40000C1C40000BFC40000C8
:10002000BDC40000BBC40000B9C40000B7C40000D8
:10003000B5C40000B3C40000B1C40000AFC40000E8
:10004000ADC40000ABC40000A9C40000A7C40000F8
:10005000A5C40000A3C40000A1C400000C94333761
:100060009DC400000C94693B0C949F3B97C4000016
:1000700095C4000093C4000091C400008FC4000028
:100080008DC400008BC4000089C4000087C4000038
:1000900085C4000083C4000081C400007FC4000048
:1000A0007DC400007BC4000079C4000077C4000058
:1000B00075C4000073C4000071C400006FC4000068
:1000C0006DC400006BC4000069C4000067C4000078
:1000D00065C4000063C4000061C400005FC4000088
:1000E0005DC4000099389E38A338AD38B738303930
:1000F000C138C938D138DB38E538EF38FE3808392F
:10010000303912391C392639513954394339473974
:100110004D398B3958395C39623966396A397039E9
:10012000743978398B397E3982398639000000007C
:10013000003E5B4F5B3E3E6B4F6B3E1C3E7C3E1C6D
:10014000183C7E3C181C577D571C1C5E7F5E1C00B3
:10015000183C1800FFE7C3E7FF0018241800FFE76A
:10016000DBE7FF30483A060E2629792926407F052D
:100170000507407F05253F5A3CE73C5A7F3E1C1C43
:1001800008081C1C3E7F14227F22145F5F005F5F03
:1001900006097F017F006689956A606060606094EF
:1001A000A2FFA29408047E040810207E20100808F4
:1001B0002A1C08081C2A08081E101010100C1E0CFF
:1001C0001E0C30383E3830060E3E0E060000000091
:1001D0000000005F00000007000700147F147F1478
:1001E000242A7F2A122313086462364956205000BD
:1001F00008070300001C2241000041221C002A1CA9
:100200007F1C2A08083E0808008070300008080893
:100210000808000060600020100804023E514945B3
:100220003E00427F400072494949462141494D33D1
:100230001814127F1027454545393C4A4949314138
:10024000211109073649494936464949291E000006
:10025000140000004034000000081422411414145B
:100260001414004122140802015909063E415D5947
:100270004E7C1211127C7F494949363E4141412250
:100280007F4141413E7F494949417F090909013E7A
:10029000414151737F0808087F00417F41002040A1
:1002A000413F017F081422417F404040407F021CB3
:1002B000027F7F0408107F3E4141413E7F090909CA
:1002C000063E4151215E7F09192946264949493296
:1002D00003017F01033F4040403F1F2040201F3F5C
:1002E0004038403F631408146303047804036159E1
:1002F000494D43007F414141020408102000414123
:10030000417F0402010204404040404000030708CE
:100310000020545478407F284444383844444428CA
:10032000384444287F385454541800087E09021871
:10033000A4A49C787F0804047800447D40002040F9
:10034000403D007F1028440000417F40007C04783D
:1003500004787C080404783844444438FC18242485
:100360001818242418FC7C08040408485454542405
:1003700004043F44243C4040207C1C2040201C3C82
:100380004030403C44281028444C9090907C446479
:10039000544C44000836410000007700000041360C
:1003A000080002010204023C2623263C1EA1A16192
:1003B000123A4040207A38545455592155557941C4
:1003C0002254547842215554784020545579400C99
:1003D0001E5272123955555559395454545939557C
:1003E0005454580000457C410002457D42000145BF
:1003F0007C407D1211127DF0282528F07C54554553
:10040000002054547C547C0A097F493249494932BE
:100410003A4444443A324A4848303A4141217A3ACF
:1004200042402078009DA0A07D3D4242423D3D409B
:1004300040403D3C24FF2424487E4943662B2FFC4A
:100440002F2BFF0929F620C0887E090320545479F8
:10045000410000447D413048484A32384040227AC9
:10046000007A0A0A727D0D19317D2629292F282646
:100470002929292630484D4020380808080808084E
:100480000808382F10C8ACBA2F102834FA00007BA7
:10049000000008142A142222142A140855005500BA
:1004A00055AA55AA55AAFF55FF55FF000000FF00A9
:1004B000101010FF00141414FF001010FF00FF10A4
:1004C00010F010F0141414FC001414F700FF0000D6
:1004D000FF00FF1414F404FC141417101F10101F55
:1004E000101F1414141F00101010F0000000001F43
:1004F000101010101F10101010F010000000FF104E
:100500001010101010101010FF10000000FF140049
:1005100000FF00FF00001F10170000FC04F414147B
:100520001710171414F404F40000FF00F714141447
:1005300014141414F700F7141414171410101F10C7
:100540001F141414F4141010F010F000001F101FEA
:100550000000001F14000000FC140000F010F01058
:1005600010FF10FF141414FF141010101F000000CF
:1005700000F010FFFFFFFFFFF0F0F0F0F0FFFFFFD3
:100580000000000000FFFF0F0F0F0F0F384444382A
:1005900044FC4A4A4A347E02020606027E027E0279
:1005A00063554941633844443C04407E201E200684
:1005B000027E020299A5E7A5991C2A492A1C4C72C1
:1005C00001724C304A4D4D303048784830BC625A48
:1005D000463D3E494949007E0101017E2A2A2A2AD8
:1005E0002A44445F444440514A444040444A5140B4
:1005F0000000FF0103E080FF000008086B6B083675
:1006000012362436060F090F0600001818000000E5
:100610001010003040FF0101001F01011E00191DD4
:100620001712003C3C3C3C0000000000150030006C
:100630009A0010001100200010002834120002005F
:1006400013004610FF00280012001200FF002800CF
:100650001000203413004630FF0046003000000038
:1006600031000204320007033300040334000400A5
:10067000350001043600070737000503380010066F
:1006800039001006010000010200000303003010D1
:10069000080008080A000800600000276100010047
:1006A00090003E019200000193000001A000003084
:1006B000A30010000700010007002100070023002D
:1006C000070033000700330100000100FF00320083
:1006D00001000001020000070300301004000000C8
:1006E00008000202090000000A0000000C000000DF
:1006F0000D0000000F0000001000000011000700B6
:100700001200000013000000FF00C8001000901647
:1007100011002702FF00320012001A00FF00320011
:100720001300001829002A00FF00320030000000EA
:1007300031000000320000003500060236000808D3
:100740003700070038000102390000003C000000BB
:100750003D000000200000002100000050000000CB
:100760005100EF005200000053003F01600000A75D
:10077000610003006A000000900010009200000079
:1007800093000300950000119700000098000000FE
:10079000070033010100B903FF8357FFFAB30400D8
:1007A000000606B60125B00168CC0105B1060015AA
:1007B0001C1C83AAC0065050013C1E08B40702400E
:1007C000002A2A0D783A01553601C035010044024D
:1007D00000021100FF962900FF322E89298F2B027B
:1007E000E200E401E510E601E710E870F200EA003B
:1007F000EB20EC3CEDC8E938F1011B1A1A02246128
:10080000255C183619011F88FF051F80FF051F9002
:10081000FF051FD4FF05170536092838FF28283C97
:1008200002000300040005EF060007000801093F6D
:1008300000000A0B02090C0D0E080703040100005A
:1008400000000000000000000000000000000000A8
:100850000000000000000000000000001211100065
:100860000000000000000000000000000000000088
:1008700000000000000001021020200808102040A5
:100880001020408002010201080402010102040854
:1008900010204080804020100804020180040201E2
:1008A000804020100804020108040201010204082B
:1008B0001020408001020408102040800505050535
:1008C000070508080808020202020A0A08080404C8
:1008D00004040101010101010101030303030303F6
:1008E0000303040707070C0C0C0C0C0C0C0C020285
:1008F000020206060606060606060B0B0B0B0B0B82
:100900000B0B00002200250028002B002E003100D8
:10091000340002010000050108010B010000210064
:10092000240027002A002D003000330001010000C0
:10093000040107010A014E05D13B11241FBECFEF70
:10094000D1E2DEBFCDBF00E00CBF12E0A0E0B2E01C
:10095000E0E7F2E800E00BBF02C007900D92A63E70
:10096000B107D9F723E0A6EEB2E001C01D92A53E83
:10097000B207E1F719E0CAE3D9E000E006C0229728
:100980000109FE010BBF0E940441C633D10780E07C
:100990000807A9F70E944D3E0C94364131CB0C94C8
:1009A0002841E0910903F0910A038E179F07BCF4D8
:1009B000E617F707A4F480910703909108034817FE
:1009C00059076CF48217930754F410920A0310929B
:1009D0000903109208031092070381E0089580E054
:1009E00008951F93CF93DF9361E082E20E94C5399F
:1009F00060E084E20E94C539809112029091130256
:100A0000C4E6D0E0BE010E94884012E8169FC001F3
:100A1000179F900D1124BC0163587F4F83E20E9401
:100A200075388091120290911302BE010E94884095
:100A3000169FC001179F900D1124BC0163587F4F72
:100A40004AE050E088E493E0DF91CF911F910C944D
:100A5000083D892B11F1609114027091150280916B
:100A60000E0290910F02681B790B882777FD809505
:100A7000982F0E945E3F20911602309117024091FC
:100A80001802509119020E94BF3E87FF02C061E028
:100A900001C060E081E20C94C5390895EF92FF92A5
:100AA0000F9384E3E82EFF24F39407E028E347E361
:100AB00066E087E393E00E9421379AE3E92E06E39C
:100AC00027E348E369E38BE093E00E94C1110F91B3
:100AD000FF90EF900895EF92FF920F931F938091F4
:100AE000F2028111E0C047E050E060E070E08BE08E
:100AF00093E00E946E116FEF7FEF8BE093E00E9416
:100B00007A1163E08BE093E00E9474116FE172E070
:100B10008BE093E00E945D3C4CE350E060E070E0CD
:100B20008BE093E00E946E116FEF7FEF8BE093E01C
:100B30000E947A1163E08BE093E00E94741163E2FB
:100B400072E08BE093E00E945D3C4EE650E060E096
:100B500070E08BE093E00E946E116FEF7FEF8BE00F
:100B600093E00E947A1163E08BE093E00E9474119D
:100B700067E272E08BE093E00E945D3C40EA50E067
:100B800060E070E08BE093E00E946E116FEF7FEF0A
:100B90008BE093E00E947A1163E08BE093E00E9487
:100BA00074116BE272E08BE093E00E945D3C20EEFA
:100BB000E22E27E0F22E08E210E028E230E040EFDB
:100BC00050E060E070E08BE093E00E942923E12C8C
:100BD00038EFF32E28E230E04DE151E060E070E0C4
:100BE0008BE093E00E94292340EEE42E47E0F42EB0
:100BF00028E230E040EF50E06CE370E08BE093E0FF
:100C00000E942923E12C58EFF52E28E230E04DE137
:100C100051E06CE370E08BE093E00E94292360EEEA
:100C2000E62E67E0F62E28E230E040EF50E068E77D
:100C300070E08BE093E00E942923E12C78EFF72EFF
:100C400028E230E04DE151E068E770E08BE093E0AE
:100C50000E942923E0EEEE2EE7E0FE2E28E230E0AF
:100C600040EF50E068E770E08BE093E00E942923BA
:100C7000E12CF8EFFF2E28E230E04DE151E068E78B
:100C800070E08BE093E00E942923A0EEEA2EFF247F
:100C9000FA9428E230E044E051E06EEB70E08BE043
:100CA00093E00E9429232091FB023091FC024091A5
:100CB000FD025091FE0260911A0270911B02809118
:100CC0001C0290911D020E94BF3E811104C08091C0
:100CD000F202811133C040E050E06CE370E08BE041
:100CE00093E00E946E1140E050E06FEF7FEF8BE0E9
:100CF00093E00E94801166E08BE093E00E94741103
:100D000040911A0250911B0260911C0270911D02C9
:100D100022E030E08BE093E00E94F63D80911A02E1
:100D200090911B02A0911C02B0911D028093FB02C6
:100D30009093FC02A093FD02B093FE022091F50275
:100D40003091F6028091F3029091F402281739074E
:100D500021F48091F20281113BC042E350E06CE348
:100D600070E08BE093E00E946E1140E050E06FEF86
:100D70007FEF8BE093E00E94801166E08BE093E0D0
:100D80000E9474116091F5027091F60241E050E00A
:100D90008BE093E00E94083D8091F5029091F6026D
:100DA0009093F4028093F302181619063CF460E065
:100DB00081E090E0F4DD6091F50207C061E081E040
:100DC00090E0EDDD6091F502619582E090E0E7DD75
:100DD00020911402309115028091FF02909100033E
:100DE0002817390721F48091F20281112AC044E6C4
:100DF00050E06CE370E08BE093E00E946E1140E005
:100E000050E06FEF7FEF8BE093E00E94801166E08F
:100E10008BE093E00E9474116091140270911502AE
:100E200041E050E08BE093E00E94083D60911402A5
:100E3000809115026093FF028093000380E090E0B0
:100E4000AEDD6091010370910203882777FD8095E4
:100E5000982F0E945E3F9B01AC0160911602709139
:100E6000170280911802909119020E94BF3E8111D1
:100E700004C08091F202811131C046E950E06CE378
:100E800070E08BE093E00E946E1140E050E06FEF65
:100E90007FEF8BE093E00E94801166E08BE093E0AF
:100EA0000E9474114091160250911702609118022D
:100EB0007091190220E030E08BE093E00E94F63D53
:100EC0006091160270911702809118029091190298
:100ED0000E942B3F70930203609301032CE231E0E8
:100EE00044E051E066EE70E08EEB90E05ADD88233E
:100EF000E1F01092EF021092EE026FE272E088E4ED
:100F000093E00E945D3C60E070E08BE093E00E9423
:100F1000B5231092F20264EF71E080E090E01F913F
:100F20000F91FF90EF900C94AC3728E131E040EF47
:100F300050E068E270E080E090E033DD8823E1F08B
:100F40002AE037ED43E25CE360911A0270911B02E4
:100F500080911C0290911D020E945B3E60931A02D8
:100F600070931B0280931C0290931D026FE272E04B
:100F700088E493E00E945D3C25E431E04DE151E0DE
:100F800068E270E080E090E00CDD8823E1F02AE088
:100F900037ED43E25CE360911A0270911B0280918D
:100FA0001C0290911D020E945A3E60931A02709397
:100FB0001B0280931C0290931D026FE272E088E492
:100FC00093E00E945D3C28E131E040EF50E064E6B0
:100FD00070E08CE390E0E5DC882379F08091F50205
:100FE0009091F60201969093F6028093F5026FE2DB
:100FF00072E088E493E00E945D3C25E431E04DE13D
:1010000051E064E670E08CE390E0CBDC882379F07B
:101010008091F5029091F60201979093F6028093E9
:10102000F5026FE272E088E493E00E945D3C28E103
:1010300031E040EF50E060EA70E088E790E0B1DC3A
:10104000882379F080911402909115020196909373
:101050001502809314026FE272E088E493E00E942C
:101060005D3C25E431E04DE151E060EA70E088E765
:1010700090E097DC882379F080911402909115021A
:10108000019790931502809314026FE272E088E456
:1010900093E00E945D3C81E08093F2021F910F91EA
:1010A000FF90EF900895EF92FF920F931F9380911E
:1010B000F2028111C1C047E050E060E070E08BE0D7
:1010C00093E00E946E116FEF7FEF8BE093E00E9440
:1010D0007A1163E08BE093E00E9474116FE172E09B
:1010E0008BE093E00E945D3C4CE350E060E070E0F8
:1010F0008BE093E00E946E116FEF7FEF8BE093E047
:101100000E947A1163E08BE093E00E9474116BE41B
:1011100072E08BE093E00E945D3C4EE650E060E0C0
:1011200070E08BE093E00E946E116FEF7FEF8BE039
:1011300093E00E947A1163E08BE093E00E947411C7
:101140006FE472E08BE093E00E945D3C40EA50E087
:1011500060E070E08BE093E00E946E116FEF7FEF34
:101160008BE093E00E947A1163E08BE093E00E94B1
:10117000741164E572E08BE093E00E945D3C4BE00B
:1011800051E060E070E08BE093E00E946E116FEF41
:101190007FEF8BE093E00E947A1163E08BE093E0B5
:1011A0000E94741169E572E08BE093E00E945D3C5F
:1011B00090EEE92EFF24FA9408E210E028E230E0F5
:1011C00044E051E06EEB70E08BE093E00E94292355
:1011D0008091F0029091F102019729F480EEE82EBF
:1011E00087E0F82E05C0E12C08EFF02E08E210E0B1
:1011F00028E230E04EE650E06EEB70E08BE093E0EA
:101200000E9429238091100290911102019729F4E4
:1012100010EEE12E17E0F12E03C0E12CB8EFFB2E0B
:1012200008E210E028E230E040EA50E06EEB70E0C7
:101230008BE093E00E9429232091FB023091FC0275
:101240004091FD025091FE0260911A0270911B02C2
:1012500080911C0290911D020E94BF3E811104C02A
:101260008091F202811133C040E050E06CE370E005
:101270008BE093E00E946E1140E050E06FEF7FEF53
:101280008BE093E00E94801166E08BE093E00E9487
:10129000741140911A0250911B0260911C027091CE
:1012A0001D0222E030E08BE093E00E94F63D809149
:1012B0001A0290911B02A0911C02B0911D02809312
:1012C000FB029093FC02A093FD02B093FE022091DA
:1012D000F7023091F8024091F9025091FA026091C0
:1012E00003037091040380910503909106030E940B
:1012F000BF3E811104C08091F202811130C042E3EF
:1013000050E06CE370E08BE093E0E8D740E050E021
:101310006FEF7FEF8BE093E0F3D766E08BE093E035
:10132000E3D740910303509104036091050370914A
:10133000060322E030E08BE093E00E94F63D8091CE
:10134000030390910403A0910503B09106038093D9
:10135000F7029093F802A093F902B093FA028091F9
:10136000F20281112AC044E650E066E470E08BE0AE
:1013700093E0B4D740E050E06FEF7FEF8BE093E075
:10138000BFD766E08BE093E0AFD78091F0029091F9
:10139000F102892B31F464E672E08BE093E00E9465
:1013A0005D3C8091F0029091F102019731F468E682
:1013B00072E08BE093E00E945D3C8091F20281112B
:1013C0002AC046E950E066E470E08BE093E086D7FF
:1013D00040E050E06FEF7FEF8BE093E091D766E065
:1013E0008BE093E081D78091100290911102892BBC
:1013F00031F464E672E08BE093E00E945D3C809102
:10140000100290911102019731F468E672E08BE0CE
:1014100093E00E945D3C81E08093F2022CE231E097
:1014200044E051E066EE70E08EEB90E0BADA88239B
:10143000D1F081E090E09093EF028093EE026FE2B2
:1014400072E088E493E00E945D3C60E070E08BE035
:1014500093E00E94B5231092F20264EF71E080E005
:1014600090E00E94AC3726E930E04EE650E066EEB0
:1014700070E08EEB90E095DA882349F18091F002DC
:101480009091F102019749F41092F1021092F0024A
:1014900010921302109212020CC081E090E090931F
:1014A000F1028093F00284E690E09093130280931F
:1014B000120260E070E08BE093E00E94B52310928E
:1014C000F20264EF71E080E090E00E94AC3728EC1B
:1014D00030E040EA50E066EE70E08EEB90E061DADA
:1014E000882319F18091100290911102019729F43B
:1014F000109211021092100206C081E090E09093C9
:1015000011028093100260E070E08BE093E00E9493
:10151000B5231092F20264EF71E080E090E01F9139
:101520000F91FF90EF900C94AC371F910F91FF90AB
:10153000EF9008954F925F926F927F928F929F9259
:10154000AF92BF92CF92DF92EF92FF920F931F93D1
:10155000CF93DF9300D000D0CDB7DEB761E08DE050
:101560000E94C53987E393E00E94B63529833A8308
:101570004B835C836D837E8389809A80AB80BC8043
:101580000D811E8160E08DE00E94C53961E088E335
:101590000E948C3961E087E30E948C398091EE02D1
:1015A0009091EF02892B09F47EDD8091EE029091FB
:1015B000EF02019709F48FDA0E947D37C090EA02AA
:1015C000D090EB02E090EC02F090ED026C197D09F6
:1015D0008E099F09C0900A02D0900B02E0900C0285
:1015E000F0900D026C157D058E059F0508F43FC136
:1015F00085E40E945038BC01882777FD8095982F9C
:101600000E945E3FAB01BC0140931602509317024B
:10161000609318027093190222E030E088E493E0AE
:101620000E94F53D20E030EC4FE754E46091160253
:101630007091170280911802909119020E94C33E86
:101640006093160270931702809318029093190208
:101650006BE772E088E493E00E94523C40911602EE
:1016600050911702609118027091190222E030E047
:1016700088E493E00E94F53D26E636E64EE950E424
:1016800060911602709117028091180290911902D0
:101690000E94124060931602709317028093180202
:1016A000909319026BE772E088E493E00E94523C49
:1016B0004091160250911702609118027091190220
:1016C00022E030E088E493E00E94F53D20E030E045
:1016D00040EA5FE360911602709117028091180250
:1016E000909119020E945A3E60931602709317025D
:1016F00080931802909319026BE772E088E493E0FC
:101700000E94523C409116025091170260911802BB
:101710007091190222E030E088E493E00E94F53DE8
:101720002AE037ED43EA5BE36091160270911702FD
:1017300080911802909119020E94C33E6093160294
:101740007093170280931802909319026BE772E06E
:1017500088E493E00E94523C409116025091170297
:10176000609118027091190222E030E088E493E061
:101770000E94F53D60911602709117028091180247
:10178000909119020E942B3F6B017C017093E9023A
:101790006093E8028091E6029091E7028C0D9D1D16
:1017A00097FD0196BC0175956795882777FD809513
:1017B000982F0E945E3F60931602709317028093E9
:1017C000180290931902D092E702C092E6026BE7EA
:1017D00072E088E493E00E94523C409116025091DE
:1017E0001702609118027091190222E030E088E43B
:1017F00093E00E94F53D6091F5027091F602882712
:1018000077FD8095982F0E945E3F9B01AC0160910F
:1018100016027091170280911802909119020E948D
:101820005A3E6093160270931702809318029093A9
:1018300019026BE772E088E493E00E94523C409109
:10184000160250911702609118027091190222E05D
:1018500030E088E493E00E94F63D0E947D3760937B
:10186000EA027093EB028093EC029093ED02809178
:10187000100290911102019721F481E090E0E9D8E3
:1018800004C061E081E20E94C5398091F00290912C
:10189000F102019711F4A5D805C060E070E083E281
:1018A0000E9475380B3011050CF491C06BE672E0A4
:1018B00088E493E00E94523C4AE050E0B80188E49A
:1018C00093E00E94083D8BE093E035D59C01B50183
:1018D000882777FD8095982F8901222717FD20956D
:1018E000322F3F932F931F930F93A12CB12C65019F
:1018F00016E9E12EF12C00E010E028E933E040E0A9
:1019000050E00E94063E2B013C018BE093E017D58E
:101910005C01CC24B7FCC094DC2CB401882777FD93
:101920008095982F1F921F921F921F921CEAE12E02
:1019300013E0F12E00E010E028E730E040E050E056
:101940000E94063E6B017C0150920A0340920903FB
:10195000709308036093070368E772E088E493E0FC
:101960000E94523C4AE050E0B20188E493E00E94B9
:10197000013D6AE772E088E493E00E94523C4AE04D
:1019800050E0B60188E493E00E94013D0FB6F89460
:10199000DEBF0FBECDBF6DE772E088E493E0269610
:1019A0000FB6F894DEBF0FBECDBFDF91CF911F9170
:1019B0000F91FF90EF90DF90CF90BF90AF909F90EE
:1019C0008F907F906F905F904F900C945D3C269627
:1019D0000FB6F894DEBF0FBECDBFDF91CF911F9140
:1019E0000F91FF90EF90DF90CF90BF90AF909F90BE
:1019F0008F907F906F905F904F900895CF93DF937B
:101A000026E040E855E260E070E088E493E00E9460
:101A1000093B61E473E98BE093E00E94AC2D60E048
:101A200070E08BE093E00E94B52361E08DE00E94BE
:101A30008C3961E083E20E948C3961E082E20E948D
:101A40008C3961E084E20E948C3961E081E20E947D
:101A50008C39109213021092120280E090E00E94E2
:101A6000204190E0909315028093140282E090E070
:101A70000E942041C82FD0E0D093F602C093F50217
:101A800081E090E00E942041813039F4D195C195E8
:101A9000D109D093F602C093F502DF91CF9108955A
:101AA0002F923F924F925F926F927F928F929F926E
:101AB000AF92BF92CF92DF92EF92FF920F931F935C
:101AC000CF93DF9300D01F92CDB7DEB74C017C835C
:101AD0006B836A015901C8018701AC014C195D098A
:101AE00057FF03C051954195510995016B817C8148
:101AF000261B370B37FF03C031952195310922246E
:101B00002394312C2417350714F0212C312C211467
:101B1000310459F03A2D2B2D5C01832F922F3B81FC
:101B20002C81DC82CB82C32ED22EAB81BC81AA1643
:101B3000BB065CF43C2D2D2D6C01832F922F3B8135
:101B40002C81BC82AB82A32EB22E2501EB81FC81BD
:101B50004E1A5F0A3C016C187D0877FE03C0719431
:101B600061947108720157FE03C0FFEFEF1AFF0A7C
:101B7000F594E794C816D9062CF421E030E03A83B6
:101B8000298324C06FEF7FEF7A8369831FC0D4015C
:101B9000ED91FC910480F581E02D98012114310430
:101BA000D9F04B815C81B601C4011995E618F7089C
:101BB000F7FE06C0E981FA81CE0EDF1EE40CF51CAB
:101BC0002B813C812F5F3F4F3C832B836B817C813A
:101BD000A616B706E4F604C0A6016B817C81E4CFAB
:101BE0000F900F900F900F90DF91CF911F910F9159
:101BF000FF90EF90DF90CF90BF90AF909F908F902D
:101C00007F906F905F904F903F902F9008956F92CC
:101C10007F928F929F92AF92BF92CF92DF92EF927C
:101C2000FF920F931F93CF93DF93EC015B016A0147
:101C300039014801E881F9810284F385E02D8701AB
:101C40001995E881F981A601480D591D41505109A6
:101C50000284F385E02D9301B501CE011995E88149
:101C6000F9810084F185E02D9401A601B501CE0132
:101C70001995E881F981B501660D771D61507109EB
:101C80000084F185E02D9401A601CE011995DF9124
:101C9000CF911F910F91FF90EF90DF90CF90BF9069
:101CA000AF909F908F907F906F900895EF92FF92EA
:101CB0000F931F93DC01ED91FC91240F351F2150F0
:101CC00031090680F781E02D780189019B01199582
:101CD0001F910F91FF90EF900895EF92FF920F9355
:101CE0001F93DC01ED91FC91260F371F2150310924
:101CF0000680F781E02D78018A0119951F910F91D7
:101D0000FF90EF9008956F927F928F929F92AF9283
:101D1000BF92CF92DF92EF92FF920F931F93CF93D8
:101D2000DF935C014A0169013801EB01C60ED71E41
:101D3000CC15DD0574F4D501ED91FC910084F1859D
:101D4000E02D87019301A401BE01C50119952196DB
:101D5000EFCFDF91CF911F910F91FF90EF90DF9028
:101D6000CF90BF90AF909F908F907F906F9008958D
:101D7000EF92FF920F931F93DC01ED91FC9111976D
:101D80001A960D911C911B9718962D913C911997BD
:101D90000684F785E02D7B0140E050E060E070E0D4
:101DA00019951F910F91FF90EF9008950895FC01F0
:101DB0001382128283E892E0918380837583648327
:101DC000578346837187608753874287158A1586B4
:101DD00014861786168621E0248B8FEF9FEF938B56
:101DE000828B918B808B268B178A118E108E089593
:101DF0002F923F924F925F926F927F928F929F921B
:101E0000AF92BF92CF92DF92EF92FF920F931F9308
:101E1000CF93DF93CDB7DEB76A970FB6F894DEBFE6
:101E20000FBECDBF1C0158874F831C870B87FA86D6
:101E3000E986CC82DC0158964D915C915997411509
:101E4000510509F0A6C018968D919C9119976817B5
:101E500079070CF056C11A968D919C911B97EF81D2
:101E6000F885E817F9070CF04CC1D12CCB013C8167
:101E7000F6E03F9F800D911D1124181619060CF0F5
:101E800040C1C60103E0880F991F0A95E1F74F8111
:101E90005885840F951F181619060CF032C15796F5
:101EA0008C91811103C0203B08F02F5F7E876D87E6
:101EB0004B0119821CE2A12E11E0B12EA61AB70A1D
:101EC00055E0259FA00CB11C11248981853039F083
:101ED000ED85FE85EA0DFB1D94919A8301C01A825F
:101EE0006F8078842301A8E0AD83BA81B0FF12C06F
:101EF000D101ED91FC91BC81B13031F40480F581C8
:101F0000E02D2B853C8518C00684F785E02DEB84F9
:101F1000FC841DC0E985FA852B853C85E217F30713
:101F2000E1F0D101ED91FC91BC81B13059F4048014
:101F3000F581E02D29853A85A2016D857E85C10157
:101F400019950BC00684F785E02DE984FA84860193
:101F50009601A301B401C1011995EA81E695EA83CE
:101F6000FD81F150FD836C0C7D1C2FEF421A520A4B
:101F7000F111BBCF39813F5F39838C0C9D1C4D859E
:101F80005E854F5F5F4F5E874D87363009F09DCF8E
:101F9000B8C0FA0134963491329785919491231BFD
:101FA000A7E02A9F800D911D1124FA0125913491FB
:101FB000398B288BFC01459154915A8F498FFC0134
:101FC0003296549159873196A491AF873196E49116
:101FD000FC013596249131968491BC81B23050F049
:101FE000622E772467FC7094E82FFF27E7FDF095B9
:101FF000FE87ED87FC81CF2ED12C6C9C40016D9C1F
:10200000900C7C9C900C1124860E971EA12C19829A
:10201000DE8ACD8AAB01420F511D27FD5A955E83A2
:102020004D83AF81B885A80FB11D87FDBA95B88FD4
:10203000AF8B59818F85581708F063C0852F90E0CA
:102040002D853E85280F391F2C9DD0012D9DB00D6B
:102050003C9DB00D1124EF81F885EA0FFB1FFB8337
:10206000EA836D807E802401FA2D2D81F21BFA8B8C
:102070004F89588D480F591F5C8B4B8B9A89960D51
:10208000862D2D81821B39858317B0F5977061F4F9
:10209000898D9A8D0196E889F989298D3A8DE20F0B
:1020A000F31FB4909A8F898FB7FE1DC0D101ED91B7
:1020B000FC91BC81B13059F40480F581E02D2B8571
:1020C0003C854B895C89B301C10119950CC006841C
:1020D000F785E02DEB84FC84860196014A815B81C3
:1020E000B201C1011995BB0CED89FE894E0E5F1E30
:1020F000FFEF6F1A7F0AC2CFA30E49814F5F49835A
:1021000098CF6A960FB6F894DEBF0FBECDBFDF91B1
:10211000CF911F910F91FF90EF90DF90CF90BF90E4
:10212000AF909F908F907F906F905F904F903F9077
:102130002F900895AF92BF92CF92EF92FF920F939C
:102140001F93CF93DF93EC01262F888D998D0097F5
:1021500009F041C06A3069F42C898E859F8538E08A
:10216000239F800D911D11249F878E871D861C86BD
:10217000A9C06D3009F4A6C08E898823C1F03C89BE
:102180008C859D8546E0349F800D911D11244885E6
:102190005985841795075CF01D861C868E859F8562
:1021A000E8E03E9F800D911D11249F878E87EA886D
:1021B000FB88088919894E855F856C857D85CC886B
:1021C000CE0116DE2C898C859D85F6E02F9F800D33
:1021D000911D112441C06A3079F41D861C864C89FA
:1021E000FC01369684912E853F85489F200D311D38
:1021F00011243F872E8766C06D3009F463C0AC019F
:102200004C5F5F4FFA013491631708F45BC031965D
:10221000E491E61708F456C0FA014491362F341BB6
:10222000FC013296A590B490F7E03F9FA00CB11C42
:102230001124F5013296A4913196E491AA2311F06C
:10224000E1110DC0F5013496A4902C898C859D85F3
:10225000A29E800D911D11249D878C8733C0F501AE
:102260003596E4913E89332309F13C89B0E0AE0F05
:10227000B11DE7FDBA953A9FA0013B9F500D112477
:102280006C857D85460F571F6885798546175707EA
:102290006CF01D861C86FC01369684914E855F8508
:1022A000389F400D511D11245F874E87EA88FB88B7
:1022B000088919894E855F856C857D85CC88CE011E
:1022C00097DDC0CF81E090E0DF91CF911F910F911A
:1022D000FF90EF90CF90BF90AF900895FC0175876D
:1022E0006487578746870895611101C061E0FC014A
:1022F000648B0895FC01738B628B718B608B0895E6
:10230000FC01718B608B538B428B0895FC016370D1
:10231000658B8481958126813781613039F0633006
:1023200029F0918780873387228708953187208716
:10233000938782870895FC01808591850895FC012B
:10234000828593850895FC01A1E0B1E08C918867B6
:102350008C938DB188638DB99D9A158A15861486E4
:102360001786168681E0848B8FEF9FEF918B808B91
:1023700080EF90E09187808780E491E09387828767
:1023800008959F92AF92BF92CF92DF92EF92FF9209
:102390000F931F93CF93DF93EC01A62EF42EB22E52
:1023A000902E40E451E060EF70E001DD80EB92E0C0
:1023B00099838883EBA66A2D70E0FB01E454F74F04
:1023C000E491F0E0EE0FFF1FEE5FF64FA591B491A0
:1023D000BC8FAB8F4F2D50E0FA01E454F74FE491DE
:1023E000F0E0EE0FFF1FEE5FF64F859194919E8F08
:1023F0008D8F2B2D30E0F901E454F74FE491F0E09C
:10240000EE0FFF1FEE5FF64F8591949198A38F8F8B
:1024100010E0F801E454F74FE491F0E0EE0FFF1FF5
:10242000EE5FF64FC590D490DAA2C9A2FB01EA583C
:10243000F74F64916BA3FA01EA58F74F44914CA30C
:10244000F901EA58F74F24912DA3F801EA58F74F04
:1024500004910EA39BA1892F80958FA38CA18095B9
:1024600088A78DA1809589A700950AA78C91892BB3
:102470008C93ED8DFE8D80819CA1892B8083EF8DC7
:10248000F8A180819DA1892B8083E9A1FAA1808197
:102490009EA1892B808361E08A2D0E948C3961E0A6
:1024A0008F2D0E948C3961E08B2D0E948C3961E068
:1024B000892D0E948C39EE2041F061E08E2D0E9422
:1024C000C53961E08E2D0E948C39CE01DF91CF910C
:1024D0001F910F91FF90EF90DF90CF90BF90AF9042
:1024E0009F9031CFCF93DF93EC01EB8DFC8D8081FA
:1024F0009BA1892B8083EF8DF8A180819DA1892BE1
:102500008083E9A1FAA180819EA1892B80838BA57C
:10251000882369F060E00E94C53962E070E080E0E5
:1025200090E00E94AC3761E08BA50E94C539EB8D2D
:10253000FC8D80819FA189238083ED8DFE8D80811C
:1025400098A5892380838091020187788093020176
:1025500080910201809302018EB1877C8EB98EB189
:102560008EB9A59884B384BBEF8DF8A1808199A51D
:1025700089238083EF8DF8A180819DA1892B8083A1
:1025800083E0EF8DF8A1908129A592239083EF8DB0
:10259000F8A190812DA1922B9083815091F7EB8D22
:1025A000FC8D80819BA1892B8083DF91CF91089541
:1025B000CF93DF93FC01A38DB48D8C9197A18923D8
:1025C0008C9360857185CB010197892F990F990BA9
:1025D0006150A58DB68D2C9130A523232C93A2E0BC
:1025E000B1E02C9127782C932C912C932EB1277C41
:1025F0002EB9749AA59824B324BBC78DD0A1288185
:1026000031A523232883C78DD0A1288135A1232B71
:102610002883C58DD68D288134A1232B28832C9126
:1026200027782C937C91AC01407C552733E055955D
:1026300047953A95E1F79C012370332755E0220F27
:10264000331F5A95E1F7242B272B2C932EB1277C8F
:102650002EB97EB1AC014C705527440F551F440F65
:10266000551F9C0120723327359527953595279561
:10267000242B272B2EB9A59824B380719927880F76
:10268000991F282B24BBC78DD0A1888191A58923B0
:102690008883C78DD0A1888195A1892B8883C58D1A
:1026A000D68D888190A5892388838C9187788C9397
:1026B0008C9180628C938EB1877C8EB9749AA59828
:1026C00084B384BBC78DD0A1888191A589238883D9
:1026D000C78DD0A1888195A1892B8883C58DD68D82
:1026E000888194A1892B88838C9187788C933C91E5
:1026F000262F207C269526952695862F837040E2EE
:10270000849FC0011124282B232B2C938EB1877C0E
:102710008EB94EB1262F2C7084E0289F9001112491
:10272000862F807290E09595879595958795822B59
:10273000842B8EB9A59884B36071660F682B64BB37
:10274000C78DD0A1888191A589238883C78DD0A109
:10275000888195A1892B888362857385CB01019738
:10276000892F990F990B6150C58DD68D288130A581
:10277000232328832C9127782C932C912C932EB1F2
:10278000277C2EB9759AA59824B324BBC78DD0A1F8
:10279000288131A523232883C78DD0A1288135A185
:1027A000232B2883C58DD68D288134A1232B288304
:1027B0002C9127782C937C91AC01407C5527C3E069
:1027C00055954795CA95E1F79C0123703327D5E0CD
:1027D000220F331FDA95E1F7242B272B2C932EB1F0
:1027E000277C2EB97EB1AC014C705527440F551F84
:1027F000440F551F9C012072332735952795359539
:102800002795242B272B2EB9A59824B380719927BF
:10281000880F991F282B24BBC78DD0A1888191A533
:1028200089238883C78DD0A1888195A1892B88832E
:10283000C58DD68D888190A5892388838C918778D2
:102840008C938C9180628C938EB1877C8EB9759AB3
:10285000A59884B384BBC78DD0A1888191A5892315
:102860008883C78DD0A1888195A1892B8883C58D48
:10287000D68D888194A1892B88838C9187788C93BD
:102880003C91262F207C269526952695862F8370B1
:1028900040E2849FC0011124282B232B2C938EB15E
:1028A000877C8EB94EB1262F2C7084E0289F900132
:1028B0001124862F807290E0959587959595879540
:1028C000822B842B8EB9A59884B36071660F682B18
:1028D00064BBA78DB0A18C9191A589238C93A78D02
:1028E000B0A18C9195A1892B8C93A38DB48D8C91E3
:1028F00093A1892B8C93DF91CF910895BF92CF92B2
:10290000DF92EF92FF920F931F93CF93DF93FC011F
:10291000C72ED62EA38DB48D8C9197A189238C932D
:10292000A58DB68D8C9190A589238C93828D823054
:1029300011F181111EC080910201877880930201FC
:1029400080910201809302018EB1877C8EB98EB195
:102950008EB9A59884B384BBA78DB0A18C9191A5A5
:1029600089238C93A78DB0A18C9195A1892B8C93F1
:1029700012C0833081F48091020187788093020134
:1029800080910201809302018EB1877C8EB98EB155
:1029900088638EB90EC0809102018778809302010E
:1029A000809102018064809302018EB1877C8EB990
:1029B000739AA59884B384BBA78DB0A18C9191A57F
:1029C00089238C93A78DB0A18C9195A1892B8C9391
:1029D000A58DB68D8C9194A1892B8C938091020149
:1029E00087788093020110910201872F90E0EC011B
:1029F000C370DD2705E0CC0FDD1F0A95E1F7DC0190
:102A0000A07CBB27D3E0B595A795DA95E1F7CA2B53
:102A10001C2B10930201AEB1A77CAEB9FEB08C01A5
:102A2000007211271595079515950795DC01AC7077
:102A3000BB27AA0FBB1FAA0FBB1FD02FDA2BFD2A63
:102A4000FEB8A598A4B380719927880F991FE82E26
:102A5000A82BA4BBA78DB0A18C9191A589238C93A1
:102A6000A78DB0A18C9195A1892B8C9380910201A7
:102A700087788093020100910201DB01A370BB27DC
:102A800085E0AA0FBB1F8A95E1F7CB01807C9927CF
:102A9000B3E095958795BA95E1F71A2F182B012B7E
:102AA000009302018EB1877C8EB9FEB0DB01A0726B
:102AB000BB27B595A795B595A795CB018C709927A0
:102AC000880F991F880F991F0A2F082BF02AFEB82C
:102AD000A59884B360717727660F771FF62E862B33
:102AE00084BBA78DB0A18C9191A589238C93A78DD0
:102AF000B0A18C9195A1892B8C93BA01A901415069
:102B0000510961097109DB01CA0126E0B695A79553
:102B1000979587952A95D1F79C0180E090E0CD109C
:102B20009AC12817390709F466C0C0E1A78DB0A182
:102B3000DC9111A5D123DC93A78DB0A1DC9115A167
:102B4000D12BDC93A78DB0A1DC9111A5D123DC930F
:102B5000A78DB0A1DC9115A1D12BDC93A78DB0A1DD
:102B6000DC9111A5D123DC93A78DB0A1DC9115A137
:102B7000D12BDC93A78DB0A1DC9111A5D123DC93DF
:102B8000A78DB0A1DC9115A1D12BDC93A78DB0A1AD
:102B9000DC9111A5D123DC93A78DB0A1DC9115A107
:102BA000D12BDC93A78DB0A1DC9111A5D123DC93AF
:102BB000A78DB0A1DC9115A1D12BDC93A78DB0A17D
:102BC000DC9111A5D123DC93A78DB0A1DC9115A1D7
:102BD000D12BDC93A78DB0A1DC9111A5D123DC937F
:102BE000A78DB0A1DC9115A1D12BDC93C15009F0C8
:102BF0009DCF019696CF4F734150C8F0A78DB0A1DD
:102C00008C9191A589238C93A78DB0A18C9195A1CE
:102C1000892B8C93A78DB0A18C9191A589238C933E
:102C2000A78DB0A18C9195A1892B8C93E5CFA38D15
:102C3000B48D8C9193A1892B8C93DF91CF911F91AF
:102C40000F91FF90EF90DF90CF90BF900895A091EB
:102C50000201A778A0930201A0910201AC2BA093DE
:102C60000201AEB1A77CAEB9AEB1AD2BAEB9A5989D
:102C7000A4B3AE29A4BBA78DB0A1CC90B1A4CB20A6
:102C8000CC92A78DB0A1CC90B5A0CB28CC92A0912E
:102C90000201A778A0930201A0910201A12BA093A9
:102CA0000201AEB1A77CAEB9AEB1A02BAEB9A5986A
:102CB000A4B3AF29A4BBA78DB0A1CC90B1A4CB2065
:102CC000CC92A78DB0A1CC90B5A0CB28CC92A091EE
:102CD0000201A778A0930201A0910201AC2BA0935E
:102CE0000201AEB1A77CAEB9AEB1AD2BAEB9A5981D
:102CF000A4B3AE29A4BBA78DB0A1CC90B1A4CB2026
:102D0000CC92A78DB0A1CC90B5A0CB28CC92A091AD
:102D10000201A778A0930201A0910201A12BA09328
:102D20000201AEB1A77CAEB9AEB1A02BAEB9A598E9
:102D3000A4B3AF29A4BBA78DB0A1CC90B1A4CB20E4
:102D4000CC92A78DB0A1CC90B5A0CB28CC92A0916D
:102D50000201A778A0930201A0910201AC2BA093DD
:102D60000201AEB1A77CAEB9AEB1AD2BAEB9A5989C
:102D7000A4B3AE29A4BBA78DB0A1CC90B1A4CB20A5
:102D8000CC92A78DB0A1CC90B5A0CB28CC92A0912D
:102D90000201A778A0930201A0910201A12BA093A8
:102DA0000201AEB1A77CAEB9AEB1A02BAEB9A59869
:102DB000A4B3AF29A4BBA78DB0A1CC90B1A4CB2064
:102DC000CC92A78DB0A1CC90B5A0CB28CC92A091ED
:102DD0000201A778A0930201A0910201AC2BA0935D
:102DE0000201AEB1A77CAEB9AEB1AD2BAEB9A5981C
:102DF000A4B3AE29A4BBA78DB0A1CC90B1A4CB2025
:102E0000CC92A78DB0A1CC90B5A0CB28CC92A091AC
:102E10000201A778A0930201A0910201A12BA09327
:102E20000201AEB1A77CAEB9AEB1A02BAEB9A598E8
:102E3000A4B3AF29A4BBA78DB0A1CC90B1A4CB20E3
:102E4000CC92A78DB0A1CC90B5A0CB28CC92DA942F
:102E500009F0FDCE01962817390719F0B0E1DB2EF5
:102E6000F6CE4F73415008F4E2CE8091020187788C
:102E700080930201809102018C2B809302018EB11C
:102E8000877C8EB98EB18D2B8EB9A59884B38E298F
:102E900084BBA78DB0A18C9191A589238C93A78D1C
:102EA000B0A18C9195A1892B8C9380910201877898
:102EB0008093020180910201812B809302018EB1E7
:102EC000877C8EB98EB1802B8EB9A59884B38F295B
:102ED00084BBA78DB0A18C9191A589238C93A78DDC
:102EE000B0A18C9195A1892B8C93BCCFAF92BF924E
:102EF000CF92DF92EF92FF920F931F93CF93DF93C6
:102F000000D01F92CDB7DEB75C01DC015B96ED917E
:102F1000FC915C97808197969C91979789238083F9
:102F20005D96ED91FC915E97808198969C918923A6
:102F3000808302E011E0F801808187788083E0815E
:102F4000762F707C769576957695862F8370F0E255
:102F50008F9FC0011124782B7E2BD8017C938EB1DA
:102F6000877C8EB97EB1E62FEC70B4E0EB9FF00168
:102F70001124862F807290E0959587959595879579
:102F80008E2B872B8EB9A59884B36071660F682B42
:102F900064BBD5015F96ED91FC91909780819996E5
:102FA0009C919997892380835F96ED91FC919097EE
:102FB000808195969C919597892B80835D96ED9164
:102FC000FC915E97808194969C91892B80838AE006
:102FD00090E029833A834B835C830E94E337F801B6
:102FE000808187788083708129813A814B815C81DF
:102FF000852F9927AA27BB276C017D01F0ECCF22F2
:10300000DD24EE24FF2463E0F694E794D794C7947C
:103010006A95D1F7682F63706295660F607E6C29A0
:10302000672BF80160836EB1677C6EB97EB1682F43
:103030006C70660F660F6C017D01F0E2CF22DD241B
:10304000EE24FF24E2E0F694E794D794C794EA953F
:10305000D1F76C29672B6EB9A59864B38071880F7E
:10306000862B84BBD5015F96ED91FC919097808172
:1030700099969C919997892380835F96ED91FC9115
:103080009097808195969C91892B80838AE090E02F
:1030900029833A834B835C830E94E337F801808164
:1030A00087788083708129813A814B815C81CA0154
:1030B000AA27BB276C017D01F0ECCF22DD24EE2492
:1030C000FF2463E0F694E794D794C7946A95D1F708
:1030D000682F63706295660F607E6C29672BF8011C
:1030E00060836EB1677C6EB97EB1682F6C70660FBD
:1030F000660F6C017D01F0E2CF22DD24EE24FF2477
:10310000E2E0F694E794D794C794EA95D1F76C2956
:10311000672B6EB9A59864B38071880F862B84BB2A
:10312000D5015F96ED91FC919097808199969C9145
:103130009997892380835F96ED91FC919097808188
:1031400095969C91892B80838AE090E029833A832D
:103150004B835C830E94E337F8018081877880830A
:10316000708129813A814B815C81BB27A52F942FE7
:10317000832F6C017D01F0ECCF22DD24EE24FF24AF
:1031800063E0F694E794D794C7946A95D1F7682FD3
:1031900063706295660F607E6C29672BF80160830F
:1031A0006EB1677C6EB97EB1682F6C70660F660F6A
:1031B0006C017D01F0E2CF22DD24EE24FF24E2E069
:1031C000F694E794D794C794EA95D1F76C29672BC6
:1031D0006EB9A59864B38071880F862B84BBD50126
:1031E0005F96ED91FC919097808199969C9199972B
:1031F000892380835F96ED91FC91909780819596CD
:103200009C91892B80838AE090E029833A834B83C9
:103210005C830E94E337F801808187788083708126
:1032200029813A814B815C81DA01C901807C99272F
:10323000AA27BB2713E0B695A795979587951A956A
:10324000D1F7622F63706295660F607E682B672BE3
:1032500060838EB1877C8EB97EB1622F6C70660FF1
:10326000660FDA01C90180729927AA27BB2702E0FD
:10327000B695A795979587950A95D1F7682B672BF3
:103280006EB9A59884B32071220F282B24BBD501D9
:103290005F96ED91FC919097808199969C9199977A
:1032A000892380835F96ED91FC919097808195961C
:1032B0009C919597892B80835B96ED91FC915C970F
:1032C000808193969C91892B80830F900F900F9013
:1032D0000F90DF91CF911F910F91FF90EF90DF90B2
:1032E000CF90BF90AF900895BF92CF92DF92EF92B0
:1032F000FF920F931F93CF93DF93EC017A01C901E3
:10330000EB8DFC8D20813FA1232320832A8D211169
:103310001AC52D89223089F0233021F1213079F529
:10332000EFEEF0E09F01201B310BAB01EE19FF091E
:103330008C01CF017B01B90123C02FEE30E0D90110
:10334000A81BB90BC901861B970B2FE331E0B9010C
:10335000601B710B8901041B150BA801FC017B018B
:10336000BD010EC04FE351E09A01281B390B461BEB
:10337000570BF701C8018A01B701790101C0FB01B0
:10338000AD8DBE8D2C9138A523232C932091020165
:1033900027782093020120910201209302012EB18F
:1033A000277C2EB92EB12EB9A59824B324BBAF8D9E
:1033B000B8A12C9139A523232C93AF8DB8A12C91C2
:1033C0003DA1232B2C932091020127782093020109
:1033D000209102012860209302012EB1277C2EB992
:1033E0002EB12EB9A598A59AAF8DB8A12C9139A56B
:1033F00023232C93AF8DB8A12C913DA1232B2C938B
:10340000272F332727FD3A95AD8DBE8DDC90CCA0BC
:10341000DC28DC92A0910201A778A0930201B09071
:1034200002016901A0ECCA22DD24B3E0D594C7945F
:10343000BA95E1F7D901A370BB27689414F8AA0FD5
:10344000BB1F1694E1F7AC29AB29A0930201AEB1E2
:10345000A77CAEB9BEB06901ACE0CA22DD24CC0CB9
:10346000DD1CCC0CDD1CD901A072BB27B595A7953E
:10347000B595A795AC29AB29AEB9A598A4B3207191
:103480003327220F331FA22BA4BBAF8DB8A12C91E1
:1034900039A523232C93AF8DB8A12C913DA1232BCB
:1034A0002C9320910201277820930201D0900201F1
:1034B000DB01A07CBB2723E0B595A7952A95E1F712
:1034C0009B0123703327B5E0220F331FBA95E1F734
:1034D0002A2B2D29209302012EB1277C2EB9DEB094
:1034E000DB01AC70BB27AA0FBB1FAA0FBB1F9B0140
:1034F0002072332735952795359527952A2B2D2929
:103500002EB9A59824B360717727660F771F262BF5
:1035100024BBAF8DB8A12C9139A523232C93AF8D5B
:10352000B8A12C913DA1232B2C93AD8DBE8D2C9158
:1035300038A523232C9320910201277820930201A0
:1035400020910201209302012EB1277C2EB92EB1C9
:103550002EB9A59824B324BBAF8DB8A12C9139A561
:1035600023232C93AF8DB8A12C913DA1232B2C9319
:103570002091020127782093020120910201286204
:10358000209302012EB1277C2EB92EB12EB9A59819
:10359000A59AAF8DB8A12C9139A523232C93AF8D7B
:1035A000B8A12C913DA1232B2C93292F332727FD44
:1035B0003A95AD8DBE8D6C917CA1672B6C9360911B
:1035C0000201677860930201D0900201D901A07CCA
:1035D000BB2773E0B595A7957A95E1F7B9016370BC
:1035E0007727B5E0660F771FBA95E1F76A2B6D294B
:1035F000609302016EB1677C6EB9DEB0D901AC7028
:10360000BB27AA0FBB1FAA0FBB1FB9016072772788
:1036100075956795759567956A2B6D296EB9A5980F
:1036200064B320713327220F331F622B64BBAF8D2D
:10363000B8A12C9139A523232C93AF8DB8A12C913F
:103640003DA1232B2C932091020127782093020186
:10365000A0910201BC01607C7727B3E07595679566
:10366000BA95E1F79C012370332775E0220F331FD1
:103670007A95E1F7262B2A2B209302012EB1277C85
:103680002EB9AEB1BC016C707727660F771F660F3D
:10369000771F9C01207233273595279535952795FF
:1036A000262B2A2B2EB9A59824B380719927880F31
:1036B000991F282B24BBAF8DB8A18C9199A5892384
:1036C0008C93AF8DB8A18C919DA1892B8C93AD8DDE
:1036D000BE8D8C9198A589238C9380910201877867
:1036E0008093020180910201809302018EB1877C58
:1036F0008EB98EB18EB9A59884B384BBAF8DB8A1B5
:103700008C9199A589238C93AF8DB8A18C919DA1A3
:10371000892B8C938091020187788093020180919C
:1037200002018864809302018EB1877C8EB98EB1CC
:103730008EB9A598A59AAF8DB8A18C9199A589232A
:103740008C93AF8DB8A18C919DA1892B8C938F2DDB
:10375000992787FD9A95AD8DBE8D2C913CA1232B89
:103760002C9320910201277820930201A09102015D
:10377000BC01607C772723E0759567952A95E1F772
:103780009C012370332775E0220F331F7A95E1F7F0
:10379000262B2A2B209302012EB1277C2EB9AEB105
:1037A000BC016C707727660F771F660F771F9C012F
:1037B000207233273595279535952795262B2A2B6B
:1037C0002EB9A59824B380719927880F991F282BAB
:1037D00024BBAF8DB8A18C9199A589238C93AF8D13
:1037E000B8A18C919DA1892B8C938091020187783F
:1037F00080930201609102019701207C3327B3E09E
:1038000035952795BA95E1F7C7018370992735E07B
:10381000880F991F3A95E1F7822B862B809302013E
:103820008EB1877C8EB96EB197012C703327220F31
:10383000331F220F331FC7018072992795958795F3
:1038400095958795822B862B8EB9A59884B330E108
:10385000E322FF24EE0CFF1C8E2984BBAF8DB8A1A0
:103860008C9199A589238C93AF8DB8A18C919DA142
:10387000892B8C93AD8DBE8D8C9198A589238C93CB
:1038800080910201877880930201809102018093E8
:1038900002018EB1877C8EB98EB18EB9A59884B3A2
:1038A00084BBAF8DB8A18C9199A589238C93AF8DE2
:1038B000B8A18C919DA1892B8C938091020187786E
:1038C00080930201809102018866809302018EB18B
:1038D000877C8EB98EB18EB9A598A59AAF8DB8A107
:1038E0008C9199A589238C93AF8DB8A18C919DA1C2
:1038F000892B8C93812F992787FD9A95AD8DBE8D4D
:103900002C913CA1232B2C9320910201277820930A
:103910000201A0910201BC01607C772723E075952C
:1039200067952A95E1F79C012370332775E0220FF4
:10393000331F7A95E1F7262B2A2B209302012EB113
:10394000277C2EB9AEB1BC016C707727660F771F4C
:10395000660F771F9C012072332735952795359583
:103960002795262B2A2B2EB9A59824B38071992749
:10397000880F991F282B24BBAF8DB8A18C9199A5D6
:1039800089238C93AF8DB8A18C919DA1892B8C93A9
:103990008091020187788093020160910201980171
:1039A000207C3327B3E035952795BA95E1F7C80118
:1039B0008370992735E0880F991F3A95E1F7822B9C
:1039C000862B809302018EB1877C8EB96EB19801EF
:1039D0002C703327220F331F220F331FC801807230
:1039E00099279595879595958795822B862B8EB9E6
:1039F000A59884B300711127000F111F802B84BB81
:103A0000AF8DB8A18C9199A589238C93AF8DB8A166
:103A10008C919DA1892B8C93AD8DBE8D8C9198A599
:103A200089238C9380910201877880930201809191
:103A30000201809302018EB1877C8EB98EB18EB95E
:103A4000A59884B384BBAF8DB8A18C9199A5892327
:103A50008C93AF8DB8A18C919DA1892B8C93809173
:103A60000201877880930201809102018093020114
:103A70008EB1877C8EB9739AA59884B384BBAF8DC1
:103A8000B8A18C9199A589238C93AF8DB8A18C9105
:103A90009DA1892B8C938F2F992787FD9A95AD8DAA
:103AA000BE8D2C913CA1232B2C93209102012778D1
:103AB00020930201A0910201BC01607C772703E002
:103AC000759567950A95E1F79C012370332775E09A
:103AD000220F331F7A95E1F7262B2A2B2093020120
:103AE0002EB1277C2EB9AEB1BC016C707727660F62
:103AF000771F660F771F9C01207233273595279516
:103B000035952795262B2A2B2EB9A59824B380719D
:103B10009927880F991F282B24BBAF8DB8A18C91B2
:103B200099A589238C93AF8DB8A18C919DA1892BE8
:103B30008C93809102018778809302016091020149
:103B40009F01207C332783E0359527958A95E1F7FF
:103B5000CF018370992735E0880F991F3A95E1F7D7
:103B6000822B862B809302018EB1877C8EB96EB139
:103B70009F012C703327220F331F220F331FCF01D9
:103B8000807299279595879595958795822B862B99
:103B90008EB9A59884B3E071FF27EE0FFF1F8E2B1F
:103BA00084BBEF8DF8A1808199A589238083EF8D57
:103BB000F8A180819DA1892B8083ED8DFE8D808170
:103BC00098A58923808380910201877880930201E0
:103BD00080910201809302018EB1877C8EB98EB1F3
:103BE0008EB9A59884B384BBEF8DF8A1808199A587
:103BF00089238083EF8DF8A180819DA1892B80830B
:103C00008091020187788093020180910201806295
:103C1000809302018EB1877C8EB9739AA59884B384
:103C200084BBEF8DF8A1808199A589238083EF8DD6
:103C3000F8A180819DA1892B8083852F992787FDFD
:103C40009A95ED8DFE8D20813CA1232B2083209120
:103C50000201277820930201E0910201BC01607CFF
:103C6000772703E0759567950A95E1F79C01237026
:103C7000332775E0220F331F7A95E1F7262B2E2B81
:103C8000209302012EB1277C2EB9EEB1BC016C70DD
:103C90007727660F771F660F771F9C0120723327E7
:103CA0003595279535952795262B2E2B2EB9A5983A
:103CB00024B380719927880F991F282B24BBEF8D7F
:103CC000F8A1808199A589238083EF8DF8A1808157
:103CD0009DA1892B808380910201877880930201C6
:103CE000609102019A01207C332713E035952795D6
:103CF0001A95E1F7CA018370992705E0880F991F8B
:103D00000A95E1F7822B862B809302018EB1877C86
:103D10008EB96EB19A012C703327220F331F220FF8
:103D2000331FCA0180729927959587959595879538
:103D3000822B862B8EB9A59884B340715527440FEA
:103D4000551F842B6FC3213009F07AC3272F3327E7
:103D500027FD3A95ED8DFE8D408158A54523408382
:103D60004091020147784093020140910201406472
:103D7000409302014EB1477C4EB94EB14EB9A59861
:103D800044B344BBEF8DF8A1408159A5452340833E
:103D9000EF8DF8A140815DA1452B4083ED8DFE8D17
:103DA00040815CA1452B40834091020147784093BC
:103DB0000201A0910201F901E07CFF2753E0F59593
:103DC000E7955A95E1F7A90143705527F5E0440FAF
:103DD000551FFA95E1F74E2B4A2B409302014EB145
:103DE000477C4EB9AEB1F901EC70FF27EE0FFF1F13
:103DF000EE0FFF1FA9014072552755954795559520
:103E000047954E2B4A2B4EB9A59844B320713327C2
:103E1000220F331F422B44BBEF8DF8A1208139A51F
:103E200023232083EF8DF8A120813DA1232B208324
:103E3000ED8DFE8D208138A5232320832091020162
:103E4000277820930201209102012066209302012D
:103E50002EB1277C2EB92EB12EB9A59824B324BB40
:103E6000EF8DF8A1208139A523232083EF8DF8A1C0
:103E700020813DA1232B2083ED8DFE8D20813CA14F
:103E8000232B208320910201277820930201E091C7
:103E90000201AB01407C5527B3E055954795BA9593
:103EA000E1F79B012370332755E0220F331F5A950A
:103EB000E1F7242B2E2B209302012EB1277C2EB963
:103EC000EEB1AB014C705527440F551F440F551FE1
:103ED0009B01207233273595279535952795242BFF
:103EE0002E2B2EB9A59824B360717727660F771F04
:103EF000262B24BBEF8DF8A1208139A52323208315
:103F0000EF8DF8A120813DA1232B20832F2D332776
:103F100027FD3A95ED8DFE8D408158A545234083C0
:103F200040910201477840930201409102014064B0
:103F3000409302014EB1477C4EB9749AA59844B3A0
:103F400044BBEF8DF8A1408159A545234083EF8DF7
:103F5000F8A140815DA1452B4083ED8DFE8D408110
:103F60005CA1452B408340910201477840930201B8
:103F7000E0910201B901607C772743E07595679570
:103F80004A95E1F7A9014370552775E0440F551F85
:103F90007A95E1F7462B4E2B409302014EB1477CB8
:103FA0004EB9EEB1B9016C707727660F771F660FB7
:103FB000771FA90140725527559547955595479507
:103FC000462B4E2B4EB9A59844B320713327220FB0
:103FD000331F422B44BBEF8DF8A1208139A5232349
:103FE0002083EF8DF8A120813DA1232B2083ED8D2F
:103FF000FE8D208138A5232320832091020127787C
:1040000020930201209102012066209302012EB12B
:10401000277C2EB9749AA59824B324BBEF8DF8A100
:10402000208139A523232083EF8DF8A120813DA194
:10403000232B2083ED8DFE8D20813CA1232B20831B
:104040002091020127782093020160910201A701CB
:10405000407C552723E0559547952A95E1F7970130
:104060002370332755E0220F331F5A95E1F7242B95
:10407000262B209302012EB1277C2EB96EB1A70109
:104080004C705527440F551F440F551F9701207240
:1040900033273595279535952795242B262B2EB933
:1040A000A59824B3A0E1EA22FF24EE0CFF1C2E29E0
:1040B00024BBEF8DF8A1208139A523232083EF8D28
:1040C000F8A120813DA1232B2083292F332727FD11
:1040D0003A95ED8DFE8D408158A545234083409152
:1040E000020147784093020140910201409302018E
:1040F0004EB1477C4EB9749AA59844B344BBEF8D3A
:10410000F8A1408159A545234083EF8DF8A1408156
:104110005DA1452B4083ED8DFE8D40815CA1452B3B
:10412000408340910201477840930201E0910201EF
:10413000B901607C7727B3E075956795BA95E1F78B
:10414000A9014370552775E0440F551F7A95E1F793
:10415000462B4E2B409302014EB1477C4EB9EEB137
:10416000B9016C707727660F771F660F771FA9015B
:10417000407255275595479555954795462B4E2B9B
:104180004EB9A59844B320713327220F331F422B19
:1041900044BBEF8DF8A1208139A523232083EF8D27
:1041A000F8A120813DA1232B2083ED8DFE8D208160
:1041B00038A5232320832091020127782093020130
:1041C000209102012062209302012EB1277C2EB99A
:1041D000749AA59824B324BBEF8DF8A1208139A54A
:1041E00023232083EF8DF8A120813DA1232B208361
:1041F000ED8DFE8D20813CA1232B20832091020197
:1042000027782093020160910201AC01407C552780
:1042100023E0559547952A95E1F79C0123703327B4
:1042200055E0220F331F5A95E1F7242B262B2093BC
:1042300002012EB1277C2EB96EB1AC014C7055270E
:10424000440F551F440F551F9C012072332735958D
:10425000279535952795242B262B2EB9A59824B381
:1042600080719927880F991F282B24BBEF8DF8A107
:10427000808199A589238083EF8DF8A180819DA1FC
:10428000892B8083812F992787FD9A95ED8DFE8D4F
:10429000208138A5232320832091020127782093B1
:1042A000020120910201209302012EB1277C2EB938
:1042B000759AA59824B324BBEF8DF8A1208139A568
:1042C00023232083EF8DF8A120813DA1232B208380
:1042D000ED8DFE8D20813CA1232B208320910201B6
:1042E00027782093020160910201AC01407C5527A0
:1042F000B3E055954795BA95E1F79C0123703327B4
:1043000055E0220F331F5A95E1F7242B262B2093DB
:1043100002012EB1277C2EB96EB1AC014C7055272D
:10432000440F551F440F551F9C01207233273595AC
:10433000279535952795242B262B2EB9A59824B3A0
:1043400080719927880F991F282B24BBEF8DF8A126
:10435000808199A589238083EF8DF8A180819DA11B
:10436000892B8083ED8DFE8D808198A589238083A4
:10437000809102018778809302018091020180621E
:10438000809302018EB1877C8EB9759AA59884B30B
:1043900084BBEF8DF8A1808199A589238083EF8D5F
:1043A000F8A180819DA1892B8083ED8DFE8D808178
:1043B0009CA1892B808380910201877880930201E0
:1043C000409102019801207C3327A3E03595279581
:1043D000AA95E1F7C80183709927B5E0880F991F66
:1043E000BA95E1F7822B842B809302018EB1877CF2
:1043F0008EB94EB198012C703327220F331F220F34
:10440000331FC80180729927959587959595879553
:10441000822B842B8EB9A59884B300711127000FCD
:10442000111F802B84BBEF8DF8A1808199A5892372
:104430008083EF8DF8A180819DA1892B80832BC083
:104440002250223040F5AB01662757FD6095762F4C
:1044500033272227AA2797FDA095BA2F282B392B7F
:104460004A2B5B2B6AE2CE010E947617C701AA276E
:1044700097FDA095BA2FAC0133272227C801AA27A0
:1044800097FDA095BA2F282B392B4A2B5B2B6BE27B
:10449000CE010E947617EB8DFC8D80819BA1892B2C
:1044A0008083DF91CF911F910F91FF90EF90DF906C
:1044B000CF90BF900895CF92DF92EF92FF920F932B
:1044C0001F93CF93DF93EC01690178011216130655
:1044D0000CF04FC057FD4DC08A859B854817590782
:1044E0000CF047C088859985681779070CF041C0A2
:1044F000FB01E20FF31F9F012150310937FD39C045
:1045000077FF03C06F0160E070E02817390734F0CF
:104510009C01215031096C01C61AD70A8A01CE01CB
:104520000E9474199601442737FD4095542FB70116
:10453000CE010E947E148A8D811110C00A851B85D0
:1045400001501109288539852150310940E050E09A
:1045500060E070E0CE010E9474190BC0CE01DF91C3
:10456000CF911F910F91FF90EF90DF90CF900C941F
:10457000D812DF91CF911F910F91FF90EF90DF90B4
:10458000CF900895CF92DF92EF92FF920F931F93F7
:10459000CF93DF93EC0169017801121613060CF03A
:1045A0004FC077FD4DC088859985681779070CF055
:1045B00047C08A859B85481759070CF041C09A016E
:1045C0002C0D3D1D89010150110917FD39C057FF00
:1045D00003C0690140E050E00817190734F08C016E
:1045E000015011096C01C41AD50A9B01CE010E9429
:1045F00074199601442737FD4095542FB701CE0119
:104600000E947E148A8D811110C00A851B8501507D
:104610001109288539852150310940E050E060E0DA
:1046200070E0CE010E9474190BC0CE01DF91CF91D2
:104630001F910F91FF90EF90DF90CF900C94D812C4
:10464000DF91CF911F910F91FF90EF90DF90CF906E
:1046500008958F929F92AF92BF92CF92DF92EF9286
:10466000FF920F931F93CF93DF93EC0159016801E1
:104670004701121613060CF06BC0101611060CF051
:1046800067C088859985681779070CF061C0EA844E
:10469000FB844E155F050CF05BC0FB01E20FF31FBE
:1046A0009F012150310937FD53C0DA01A00FB11F1E
:1046B0008D010150110917FD4BC077FF03C05F0149
:1046C00060E070E057FF03C06D0140E050E0281744
:1046D000390734F09C01215031095C01A61AB70A50
:1046E0000E151F0534F08701015011096701C41A26
:1046F000D50ACE010E9474199601D5010E94DF40AF
:104700009B01AC01B401CE010E947E148A8D8111FF
:1047100010C00A851B850150110928853985215053
:10472000310940E050E060E070E0CE010E94741971
:104730000FC0CE01DF91CF911F910F91FF90EF90AD
:10474000DF90CF90BF90AF909F908F900C94D81235
:10475000DF91CF911F910F91FF90EF90DF90CF905D
:10476000BF90AF909F908F900895EF92FF920F931C
:104770001F93CF93DF93EC017B018A8D811163C17D
:10478000ED89E150E33068F4F0E0DF01A755BD4F5B
:104790002C9130E0EE0FFF1FED55FD4F8081918190
:1047A00004C080E090E020E030E0EB8DFC8D4081A3
:1047B0005FA145234083ED8DFE8D408158A54523A3
:1047C00040834091020147784093020140910201E9
:1047D000409302014EB1477C4EB94EB14EB9A598F7
:1047E00044B344BBEF8DF8A1408159A545234083D4
:1047F000EF8DF8A140815DA1452B408340910201DE
:1048000047784093020140910201409302014EB16A
:10481000477C4EB9739AA59844B344BBEF8DF8A179
:10482000408159A545234083EF8DF8A140815DA1CA
:10483000452B4083ED8DFE8D40815CA1452B40834F
:104840004091020147784093020140910201409358
:1048500002014EB1477C4EB94EB14EB9A59844B352
:1048600044BBEF8DF8A1408159A545234083EF8DCE
:10487000F8A140815DA1452B40834091020147781A
:1048800040930201E0910201B901607C7727F3E0D7
:1048900075956795FA95E1F7A90143705527A5E04D
:1048A000440F551FAA95E1F7462B4E2B409302016A
:1048B0004EB1477C4EB96EB1A9014C705527440FDB
:1048C000551F440F551F2072332735952795359571
:1048D0002795242B262B2EB9A59824B324BBEF8D26
:1048E000F8A1208139A523232083EF8DF8A1208111
:1048F0003DA1232B2083ED8DFE8D208138A5232320
:104900002083209102012778209302012091020147
:10491000209302012EB1277C2EB92EB12EB9A59875
:1049200024B324BBEF8DF8A1208139A52323208354
:10493000EF8DF8A120813DA1232B2083209102013E
:104940002778209302012091020120622093020126
:104950002EB1277C2EB9739AA59824B324BBEF8D72
:10496000F8A1208139A523232083EF8DF8A1208190
:104970003DA1232B2083ED8DFE8D20813CA1232B97
:1049800020832091020127782093020140910201A7
:104990009C0103E0369527950A95E1F720763327A9
:1049A000422B409302012EB1277C2EB92EB12EB995
:1049B000A59824B324BBEF8DF8A1208139A523232A
:1049C0002083EF8DF8A120813DA1232B208320910E
:1049D0000201277820930201409102019C0123707B
:1049E000332755E0220F331F5A95E1F7422B4093AE
:1049F00002012EB1277C2EB96EB1AC014C70552747
:104A0000440F551F440F551F9C01207233273595C5
:104A1000279535952795242B262B2EB9A59824B3B9
:104A200080719927880F991F282B24BBEF8DF8A13F
:104A3000808199A589238083EF8DF8A180819DA134
:104A4000892B808312C08150833078F40A851B85BE
:104A500001501109288539852150310940E050E085
:104A600060E070E0CE010E94741920E03CE241E079
:104A700050E0B701CE01DF91CF911F910F91FF90D0
:104A8000EF900C947E14EF92FF920F931F93CF93AD
:104A9000DF93EC01790177FD22C657FD20C688859A
:104AA0009985681779070CF01AC68A859B8548177F
:104AB00059070CF014C6EB8DFC8D80819FA18923D2
:104AC00080838A8D811186C28D89823059F083302E
:104AD000B1F08130D1F48FEE90E0841B950BAB01E7
:104AE000BC0113C08FEE90E09C01261B370BB9016F
:104AF0008FE391E09C01241B350BA90106C08FE3D5
:104B000091E0861B970BBA01AC01ED8DFE8D808183
:104B100098A5892380838091020187788093020180
:104B200080910201809302018EB1877C8EB98EB193
:104B30008EB9A59884B384BBEF8DF8A1808199A527
:104B400089238083EF8DF8A180819DA1892B8083AB
:104B50008091020187788093020180910201809305
:104B600002018EB1877C8EB9739AA59884B384BBF9
:104B7000EF8DF8A1808199A589238083EF8DF8A11D
:104B800080819DA1892B8083872F992787FD9A9506
:104B9000ED8DFE8D20813CA1232B208320910201ED
:104BA000277820930201A0910201FC01E07CFF27FD
:104BB00023E0F595E7952A95E1F79C0123703327CB
:104BC000F5E0220F331FFA95E1F72E2B2A2B2093C5
:104BD00002012EB1277C2EB9AEB1FC01EC70FF278B
:104BE000EE0FFF1FEE0FFF1F9C012072332735953C
:104BF0002795359527952E2B2A2B2EB9A59824B3CA
:104C000080719927880F991F282B24BBEF8DF8A15D
:104C1000808199A589238083EF8DF8A180819DA152
:104C2000892B808380910201877880930201E09133
:104C300002019B01207C332783E0359527958A95D7
:104C4000E1F7CB018370992735E0880F991F3A95DA
:104C5000E1F7822B8E2B809302018EB1877C8EB977
:104C6000EEB19B012C703327220F331F220F331F0D
:104C7000CB01807299279595879595958795822B7D
:104C80008E2B8EB9A59884B360717727660F771F36
:104C9000862B84BBEF8DF8A1808199A58923808321
:104CA000EF8DF8A180819DA1892B8083ED8DFE8DF4
:104CB000808198A5892380838091020187788093E1
:104CC000020180910201809302018EB1877C8EB92E
:104CD0008EB18EB9A59884B384BBEF8DF8A1808185
:104CE00099A589238083EF8DF8A180819DA1892BCF
:104CF0008083809102018778809302018091020174
:104D00008062809302018EB1877C8EB9739AA598D8
:104D100084B384BBEF8DF8A1808199A5892380831A
:104D2000EF8DF8A180819DA1892B8083852F992704
:104D300087FD9A95ED8DFE8D20813CA1232B20834C
:104D400020910201277820930201E0910201BC0129
:104D5000607C772703E0759567950A95E1F79C01DC
:104D60002370332775E0220F331F7A95E1F7262B46
:104D70002E2B209302012EB1277C2EB9EEB1BC015F
:104D80006C707727660F771F660F771F9C01207264
:104D900033273595279535952795262B2E2B2EB91C
:104DA000A59824B380719927880F991F282B24BBBD
:104DB000EF8DF8A1808199A589238083EF8DF8A1DB
:104DC00080819DA1892B80838091020187788093C7
:104DD0000201609102019A01207C332713E035958E
:104DE00027951A95E1F7CA018370992705E0880F86
:104DF000991F0A95E1F7822B862B809302018EB1D1
:104E0000877C8EB96EB19A012C703327220F331F25
:104E1000220F331FCA018072992795958795959522
:104E20008795822B862B8EB9A59884B34071552720
:104E3000440F551F842B84BBEF8DF8A1808199A569
:104E400089238083EF8DF8A180819DA1892B8083A8
:104E5000ED8DFE8D808198A589238083809102014C
:104E600087788093020180910201809302018EB1C4
:104E7000877C8EB98EB18EB9A59884B384BBEF8D33
:104E8000F8A1808199A589238083EF8DF8A1808185
:104E90009DA1892B808380910201877880930201F4
:104EA000809102018064809302018EB1877C8EB96B
:104EB000739AA59884B384BBEF8DF8A1808199A5DE
:104EC00089238083EF8DF8A180819DA1892B808328
:104ED000ED8DFE8D80819CA1892B808380910201C4
:104EE000877880930201609102018F2D9927AC0190
:104EF000407C5527E3E055954795EA95E1F79C01FD
:104F000023703327F5E0220F331FFA95E1F7242BA6
:104F1000262B209302012EB1277C2EB96EB1AC0155
:104F20004C705527440F551F440F551F9C0120728C
:104F300033273595279535952795242B262B2EB984
:104F4000A59824B380719927880F991F282B24BB1B
:104F5000EF8DF8A1808199A589238083EF8DF8A139
:104F600080819DA1892B8083809102018778809325
:104F70000201409102019701207C332703E035951F
:104F800027950A95E1F7C7018370992735E0880FC7
:104F9000991F3A95E1F7822B842B809302018EB101
:104FA000877C8EB94EB197012C703327220F331FA7
:104FB000220F331FC7018072992795958795959584
:104FC0008795822B842B8EB9A59884B330E1E32298
:104FD000FF24C1C2813009F0C2C2ED89E150E33043
:104FE00028F4F0E0E056FD4F808101C080E0ED8DB7
:104FF000FE8D908128A5922390839091020197784D
:1050000090930201909102019064909302019EB1ED
:10501000977C9EB9749AA598A59AEF8DF8A1908176
:1050200029A592239083EF8DF8A190812DA1922B39
:105030009083ED8DFE8D90812CA1922B9083909189
:10504000020197789093020120910201982F907CA1
:10505000969596959695922B909302019EB1977C8A
:105060009EB92EB1807290E095958795959587951C
:10507000282B2EB9A59884B384BBEF8DF8A180812D
:1050800099A589238083EF8DF8A180819DA1892B2B
:105090008083872F992787FD9A95ED8DFE8D20813E
:1050A00038A5232320832091020127782093020131
:1050B000209102012064209302012EB1277C2EB999
:1050C0002EB12EB9A59824B324BBEF8DF8A1208171
:1050D00039A523232083EF8DF8A120813DA1232B27
:1050E0002083ED8DFE8D20813CA1232B20832091F8
:1050F0000201277820930201A0910201FC01E07CCB
:10510000FF27B3E0F595E795BA95E1F79C01237089
:10511000332715E0220F331F1A95E1F72E2B2A2B88
:10512000209302012EB1277C2EB9AEB1FC01EC70A8
:10513000FF27EE0FFF1FEE0FFF1F9C01207233278A
:1051400035952795359527952E2B2A2B2EB9A59881
:1051500024B380719927880F991F282B24BBEF8DCA
:10516000F8A1808199A589238083EF8DF8A18081A2
:105170009DA1892B8083ED8DFE8D808198A589234B
:1051800080838091020187788093020180910201DF
:105190008066809302018EB1877C8EB98EB18EB904
:1051A000A59884B384BBEF8DF8A1808199A589234C
:1051B0008083EF8DF8A180819DA1892B8083ED8D67
:1051C000FE8D80819CA1892B80838091020187784C
:1051D00080930201E09102019B01207C3327B3E020
:1051E00035952795BA95E1F7CB018370992715E09E
:1051F000880F991F1A95E1F7822B8E2B809302015D
:105200008EB1877C8EB9EEB19B012C703327220FB3
:10521000331F220F331FCB018072992795958795F5
:1052200095958795822B8E2B8EB9A59884B3607146
:105230007727660F771F862B84BBEF8DF8A18081BF
:1052400099A589238083EF8DF8A180819DA1892B69
:105250008083852F992787FD9A95ED8DFE8D20817E
:1052600038A523232083209102012778209302016F
:10527000209102012064209302012EB1277C2EB9D7
:10528000749AA59824B324BBEF8DF8A1208139A589
:1052900023232083EF8DF8A120813DA1232B2083A0
:1052A000ED8DFE8D20813CA1232B208320910201D6
:1052B000277820930201E0910201BC01607C7727EE
:1052C000A3E075956795AA95E1F79C0123703327B4
:1052D000B5E0220F331FBA95E1F7262B2E2B209332
:1052E00002012EB1277C2EB9EEB1BC016C7077277C
:1052F000660F771F660F771F9C0120723327359545
:10530000279535952795262B2E2B2EB9A59824B3B6
:1053100080719927880F991F282B24BBEF8DF8A146
:10532000808199A589238083EF8DF8A180819DA13B
:10533000892B8083ED8DFE8D808198A589238083C4
:10534000809102018778809302018091020180663A
:10535000809302018EB1877C8EB9749AA59884B32C
:1053600084BBEF8DF8A1808199A589238083EF8D7F
:10537000F8A180819DA1892B8083ED8DFE8D808198
:105380009CA1892B80838091020187788093020100
:10539000609102019A01207C332773E035952795AF
:1053A0007A95E1F7CA0183709927E5E0880F991F84
:1053B000EA95E1F7822B862B809302018EB1877CE0
:1053C0008EB96EB19A012C703327220F331F220F32
:1053D000331FCA0180729927959587959595879572
:1053E000822B862B8EB9A59884B340715527440F24
:1053F000551F842B84BBEF8DF8A1808199A589234B
:105400008083EF8DF8A180819DA1892B8083ED8D14
:10541000FE8D808198A58923808380910201877801
:1054200080930201809102018064809302018EB119
:10543000877C8EB9739AA59884B384BBEF8DF8A14D
:10544000808199A589238083EF8DF8A180819DA11A
:10545000892B8083ED8DFE8D80819CA1892B80839B
:1054600080910201877880930201609102018F2D63
:105470009927AC01407C552703E0559547950A953F
:10548000E1F79C012370332755E0220F331F5A9513
:10549000E1F7242B262B209302012EB1277C2EB975
:1054A0006EB1AC014C705527440F551F440F551F6A
:1054B0009C01207233273595279535952795242B08
:1054C000262B2EB9A59824B380719927880F991F90
:1054D000282B24BBEF8DF8A1808199A58923808397
:1054E000EF8DF8A180819DA1892B8083809102019D
:1054F000877880930201409102019701207C332735
:10550000A3E035952795AA95E1F7C7018370992700
:10551000B5E0880F991FBA95E1F7822B842B809311
:1055200002018EB1877C8EB94EB197012C70332762
:10553000220F331F220F331FC701807299279595C1
:10554000879595958795822B842B8EB9A59884B3E2
:1055500090E1E922FF24EE0CFF1C8E29ADC08250A1
:10556000823008F0B6C00A851B85015011092885D4
:10557000398521503109CE010E947419EB8DFC8DC3
:1055800080819FA189238083ED8DFE8D808198A5E8
:105590008923808380910201877880930201809122
:1055A0000201809302018EB1877C8EB98EB188632F
:1055B0008EB9A59884B384BBEF8DF8A1808199A59D
:1055C00089238083EF8DF8A180819DA1892B808321
:1055D000ED8DFE8D80819CA1892B808380910201BD
:1055E000877880930201409102018F2D99279C01B9
:1055F000207C332713E0369527951A95E1F7382F4D
:1056000033703295330F307E322B342B30930201BE
:105610002EB1277C2EB95EB1482F4C70440F440F39
:105620009C01207233273695279536952795422B76
:10563000452B4EB9A59894B38071880F892B84BBF4
:10564000EF8DF8A1808199A589238083EF8DF8A142
:1056500080819DA1892B808380910201877880932E
:10566000020120910201C701807C992733E09695C1
:1056700087953A95E1F79E2D93709295990F907EBC
:10568000982B922B909302018EB1877C8EB93EB1FC
:105690002E2D2C70220F220FC7018072992796950C
:1056A000879596958795282B232B2EB9A59894B38B
:1056B0008E2D8071880F892B84BBEF8DF8A180819E
:1056C00099A589238083EF8DF8A180819DA1892BE5
:1056D0008083EB8DFC8D80819BA1892B8083DF9162
:1056E000CF911F910F91FF90EF900895CF92DF928D
:1056F000EF92FF920F931F93CF93DF93EC010E94E1
:105700008611EB8DFC8D80819FA1892380838A8DFA
:105710008111B2C0ED89E150E33040F4F0E0EE0FCA
:10572000FF1FE656FD4F8081918102C080E390E12A
:10573000ED8DFE8D208138A5232320832091020149
:1057400027782093020120910201209302012EB1BB
:10575000277C2EB92EB12EB9A59824B324BBEF8D8A
:10576000F8A1208139A523232083EF8DF8A1208182
:105770003DA1232B20832091020127782093020151
:10578000209102012066209302012EB1277C2EB9C0
:105790002EB12EB9A59824B324BBEF8DF8A120819A
:1057A00039A523232083EF8DF8A120813DA1232B50
:1057B0002083ED8DFE8D20813CA1232B2083209121
:1057C0000201277820930201209102012093020117
:1057D0002EB1277C2EB92EB12EB9A598A59AEF8DA2
:1057E000F8A1208139A523232083EF8DF8A1208102
:1057F0003DA1232B208320910201277820930201D1
:1058000020910201209302012EB1277C2EB96EB1A6
:10581000AC014C705527440F551F440F551F9C0178
:10582000207233273595279535952795242B262BE0
:105830002EB9A59824B380719927880F991F282B1A
:1058400024BBEF8DF8A1808199A589238083EF8DFA
:10585000F8A180819DA1892B80830A851B85015039
:105860001109288539852150310940E050E060E078
:1058700070E0CE010E9474198A8D813009F05FC0FA
:10588000ED89E150E33028F4F0E0E956FD4F8081E6
:1058900001C080E0ED8DFE8D908128A5922390833C
:1058A0009091020197789093020190910201906487
:1058B000909302019EB1977C9EB9749AA598A59A7F
:1058C000EF8DF8A1908129A592239083EF8DF8A107
:1058D00090812DA1922B9083ED8DFE8D90812CA136
:1058E000922B9083909102019778909302012091DE
:1058F0000201982F907C969596959695922B909371
:1059000002019EB1977C9EB92EB1807290E0959570
:10591000879595958795282B2EB9A59884B384BB38
:10592000EF8DF8A1808199A589238083EF8DF8A15F
:1059300080819DA1892B8083CE010E94D8128A8DFF
:10594000823009F07FC08D89813069F040F082306B
:1059500071F0833079F438E2C32ED12C0BC028E8E3
:10596000C22ED12C07C098EEC92ED12C03C088E4DA
:10597000C82ED12CED8DFE8D808198A58923808342
:1059800080910201877880930201809102018064F6
:10599000809302018EB1877C8EB98EB188618EB9F9
:1059A000A598A59AEF8DF8A1808199A58923808378
:1059B000EF8DF8A180819DA1892B8083ED8DFE8DD7
:1059C00080819CA1892B80838091020187788093BC
:1059D000020120910201C601807C992713E096956F
:1059E00087951A95E1F7282B209302018EB1877CC9
:1059F0008EB98EB1806290E2C922DD24D694C7941C
:105A0000D694C7948C298EB9A59884B384BBEF8DA6
:105A1000F8A1808199A589238083EF8DF8A18081E9
:105A20009DA1892B80830A851B850150110928853A
:105A300039852150310940E050E060E070E0CE014E
:105A40000E9474198A8D833009F07DC08D89813060
:105A500069F040F0823071F0833071F4B0E6EB2EE3
:105A6000F12C0AC0A0ECEA2EF12C06C0F0EAEF2ED1
:105A7000F12C02C0E12CF12CED8DFE8D808198A5DA
:105A8000892380838091020187788093020180912D
:105A900002018064809302018EB1877C8EB98EB141
:105AA00088618EB9A598A59AEF8DF8A1808199A5F6
:105AB00089238083EF8DF8A180819DA1892B80832C
:105AC000ED8DFE8D80819CA1892B808380910201C8
:105AD00087788093020120910201C701807C992779
